{"abi":[{"type":"constructor","inputs":[{"name":"_vrfCoordinator","type":"address","internalType":"address"},{"name":"_owner","type":"address","internalType":"address"},{"name":"_copeToken","type":"address","internalType":"address"},{"name":"_keyHash","type":"bytes32","internalType":"bytes32"},{"name":"_subscriptionId","type":"uint64","internalType":"uint64"}],"stateMutability":"nonpayable"},{"type":"receive","stateMutability":"payable"},{"type":"function","name":"COPE_TOKEN_REWARD_PER_SPIN","inputs":[],"outputs":[{"name":"","type":"uint256","internalType":"uint256"}],"stateMutability":"view"},{"type":"function","name":"HACKATHON_BET_AMOUNT","inputs":[],"outputs":[{"name":"","type":"uint256","internalType":"uint256"}],"stateMutability":"view"},{"type":"function","name":"PAYOUT_WIN_FOR_3_SYMBOLS","inputs":[],"outputs":[{"name":"","type":"uint256","internalType":"uint256"}],"stateMutability":"view"},{"type":"function","name":"PAYOUT_WIN_FOR_4_SYMBOLS","inputs":[],"outputs":[{"name":"","type":"uint256","internalType":"uint256"}],"stateMutability":"view"},{"type":"function","name":"PAYOUT_WIN_FOR_5_SYMBOLS","inputs":[],"outputs":[{"name":"","type":"uint256","internalType":"uint256"}],"stateMutability":"view"},{"type":"function","name":"callbackGasLimit","inputs":[],"outputs":[{"name":"","type":"uint32","internalType":"uint32"}],"stateMutability":"view"},{"type":"function","name":"copeToken","inputs":[],"outputs":[{"name":"","type":"address","internalType":"contract ICopeToken"}],"stateMutability":"view"},{"type":"function","name":"depositEther","inputs":[],"outputs":[],"stateMutability":"payable"},{"type":"function","name":"keyHash","inputs":[],"outputs":[{"name":"","type":"bytes32","internalType":"bytes32"}],"stateMutability":"view"},{"type":"function","name":"numWords","inputs":[],"outputs":[{"name":"","type":"uint32","internalType":"uint32"}],"stateMutability":"view"},{"type":"function","name":"owner","inputs":[],"outputs":[{"name":"","type":"address","internalType":"address"}],"stateMutability":"view"},{"type":"function","name":"playSlots","inputs":[],"outputs":[{"name":"requestId","type":"uint256","internalType":"uint256"}],"stateMutability":"payable"},{"type":"function","name":"rawFulfillRandomWords","inputs":[{"name":"requestId","type":"uint256","internalType":"uint256"},{"name":"randomWords","type":"uint256[]","internalType":"uint256[]"}],"outputs":[],"stateMutability":"nonpayable"},{"type":"function","name":"renounceOwnership","inputs":[],"outputs":[],"stateMutability":"nonpayable"},{"type":"function","name":"requestConfirmations","inputs":[],"outputs":[{"name":"","type":"uint16","internalType":"uint16"}],"stateMutability":"view"},{"type":"function","name":"s_randomWords","inputs":[{"name":"","type":"uint256","internalType":"uint256"}],"outputs":[{"name":"","type":"uint256","internalType":"uint256"}],"stateMutability":"view"},{"type":"function","name":"s_requestId","inputs":[],"outputs":[{"name":"","type":"uint256","internalType":"uint256"}],"stateMutability":"view"},{"type":"function","name":"s_subscriptionId","inputs":[],"outputs":[{"name":"","type":"uint64","internalType":"uint64"}],"stateMutability":"view"},{"type":"function","name":"transferOwnership","inputs":[{"name":"newOwner","type":"address","internalType":"address"}],"outputs":[],"stateMutability":"nonpayable"},{"type":"function","name":"withdrawCopeToken","inputs":[{"name":"_amount","type":"uint256","internalType":"uint256"}],"outputs":[],"stateMutability":"nonpayable"},{"type":"function","name":"withdrawEther","inputs":[],"outputs":[],"stateMutability":"nonpayable"},{"type":"event","name":"GamePlayed","inputs":[{"name":"player","type":"address","indexed":false,"internalType":"address"},{"name":"amount","type":"uint256","indexed":false,"internalType":"uint256"},{"name":"slotsResults","type":"uint256[5]","indexed":false,"internalType":"uint256[5]"},{"name":"isWinner","type":"bool","indexed":false,"internalType":"bool"}],"anonymous":false},{"type":"event","name":"OwnershipTransferred","inputs":[{"name":"previousOwner","type":"address","indexed":true,"internalType":"address"},{"name":"newOwner","type":"address","indexed":true,"internalType":"address"}],"anonymous":false},{"type":"event","name":"RequestSent","inputs":[{"name":"requestId","type":"uint256","indexed":false,"internalType":"uint256"},{"name":"numWords","type":"uint32","indexed":false,"internalType":"uint32"}],"anonymous":false},{"type":"error","name":"InsufficientBalance","inputs":[]},{"type":"error","name":"InsufficientBalanceToPayWinner","inputs":[]},{"type":"error","name":"InsufficientBetAmount","inputs":[]},{"type":"error","name":"InsufficientCopeTokenBalance","inputs":[]},{"type":"error","name":"OnlyCoordinatorCanFulfill","inputs":[{"name":"have","type":"address","internalType":"address"},{"name":"want","type":"address","internalType":"address"}]},{"type":"error","name":"OwnableInvalidOwner","inputs":[{"name":"owner","type":"address","internalType":"address"}]},{"type":"error","name":"OwnableUnauthorizedAccount","inputs":[{"name":"account","type":"address","internalType":"address"}]},{"type":"error","name":"ReentrancyGuardReentrantCall","inputs":[]}],"bytecode":{"object":"0x60a0604052600580546001600160501b031916660500030003d09017905534801561002957600080fd5b50604051610ed3380380610ed383398101604081905261004891610152565b84846001600160a01b03811661007857604051631e4fbdf760e01b81526000600482015260240160405180910390fd5b610081816100e6565b506001600160a01b0390811660805260018055600280546001600160a01b0319169482169490941790935560038054600493909355949092166001600160e01b031990911617600160a01b6001600160401b03929092169190910217909155506101c1565b600080546001600160a01b038381166001600160a01b0319831681178455604051919092169283917f8be0079c531659141344cd1fd0a4f28419497f9722a3daafe3b4186f6b6457e09190a35050565b80516001600160a01b038116811461014d57600080fd5b919050565b600080600080600060a0868803121561016a57600080fd5b61017386610136565b945061018160208701610136565b935061018f60408701610136565b6060870151608088015191945092506001600160401b03811681146101b357600080fd5b809150509295509295909350565b608051610cf06101e3600039600081816103cb015261040d0152610cf06000f3fe60806040526004361061012e5760003560e01c80638ac00021116100ab578063befe37fd1161006f578063befe37fd14610313578063e89e106a1461032f578063eebd778214610345578063f2fde38b14610360578063f6eaffc814610380578063fc19071e146103a057600080fd5b80638ac00021146102625780638da5cb5b146102a357806398ea5fca146102d5578063a23a338b14610248578063b0fb162f146102dd57600080fd5b806368afba3a116100f257806368afba3a146101da578063715018a6146101fa5780637362377b1461020f5780637ccfd7fc1461022457806382773d171461024857600080fd5b80631fe543e31461013a57806324f746971461015c578063545d63d2146101935780635a34a638146101bc57806361728f39146101c457600080fd5b3661013557005b600080fd5b34801561014657600080fd5b5061015a610155366004610a98565b6103c0565b005b34801561016857600080fd5b506005546101799063ffffffff1681565b60405163ffffffff90911681526020015b60405180910390f35b34801561019f57600080fd5b506101ae66038d7ea4c6800081565b60405190815260200161018a565b6101ae61044d565b3480156101d057600080fd5b506101ae60045481565b3480156101e657600080fd5b5061015a6101f5366004610b62565b610628565b34801561020657600080fd5b5061015a6106c4565b34801561021b57600080fd5b5061015a6106d8565b34801561023057600080fd5b5060055461017990600160301b900463ffffffff1681565b34801561025457600080fd5b506101ae655af3107a400081565b34801561026e57600080fd5b5060035461028a90600160a01b900467ffffffffffffffff1681565b60405167ffffffffffffffff909116815260200161018a565b3480156102af57600080fd5b506000546001600160a01b03165b6040516001600160a01b03909116815260200161018a565b61015a610738565b3480156102e957600080fd5b5060055461030090640100000000900461ffff1681565b60405161ffff909116815260200161018a565b34801561031f57600080fd5b506101ae670de0b6b3a764000081565b34801561033b57600080fd5b506101ae60075481565b34801561035157600080fd5b506101ae66071afd498d000081565b34801561036c57600080fd5b5061015a61037b366004610b7b565b610759565b34801561038c57600080fd5b506101ae61039b366004610b62565b610797565b3480156103ac57600080fd5b506002546102bd906001600160a01b031681565b336001600160a01b037f0000000000000000000000000000000000000000000000000000000000000000161461043f5760405163073e64fd60e21b81523360048201526001600160a01b037f00000000000000000000000000000000000000000000000000000000000000001660248201526044015b60405180910390fd5b61044982826107b8565b5050565b600061045761095d565b655af3107a400034101561047e576040516301bc1d6960e21b815260040160405180910390fd5b66071afd498d00004710156104a65760405163fb97c54760e01b815260040160405180910390fd5b600354600480546005546040516305d3b1d360e41b815292830191909152600160a01b830467ffffffffffffffff166024830152640100000000810461ffff16604483015263ffffffff8082166064840152600160301b9091041660848201526001600160a01b0390911690635d3b1d309060a4016020604051808303816000875af115801561053a573d6000803e3d6000fd5b505050506040513d601f19601f8201168201806040525081019061055e9190610bab565b6007556002546040516340c10f1960e01b8152336004820152670de0b6b3a764000060248201526001600160a01b03909116906340c10f1990604401600060405180830381600087803b1580156105b457600080fd5b505af11580156105c8573d6000803e3d6000fd5b505060075460055460408051928352600160301b90910463ffffffff1660208301527fcc58b13ad3eab50626c6a6300b1d139cd6ebb1688a7cced9461c2f7e762665ee935001905060405180910390a15060075461062560018055565b90565b610630610987565b6002546001600160a01b031663a9059cbb6106536000546001600160a01b031690565b6040516001600160e01b031960e084901b1681526001600160a01b039091166004820152602481018490526044016020604051808303816000875af11580156106a0573d6000803e3d6000fd5b505050506040513d601f19601f820116820180604052508101906104499190610bc4565b6106cc610987565b6106d660006109b4565b565b6106e0610987565b47806106ff57604051631e9acf1760e31b815260040160405180910390fd5b600080546040516001600160a01b039091169183156108fc02918491818181858888f19350505050158015610449573d6000803e3d6000fd5b600034116106d657604051631e9acf1760e31b815260040160405180910390fd5b610761610987565b6001600160a01b03811661078b57604051631e4fbdf760e01b815260006004820152602401610436565b610794816109b4565b50565b600681815481106107a757600080fd5b600091825260209091200154905081565b80516107cb906006906020840190610a04565b506107d4610a4f565b6000806001815b60058110156108955760068682815181106107f8576107f8610be6565b602002602001015161080a9190610bfc565b85826005811061081c5761081c610be6565b60200201528015801590610865575084610837600183610c34565b6005811061084757610847610be6565b602002015185826005811061085e5761085e610be6565b6020020151145b15610888578161087481610c4d565b92505082821115610883578192505b61088d565b600191505b6001016107db565b50600382101592506000831561091757826003036108ba5750655af3107a40006108e2565b826004036108d0575066038d7ea4c680006108e2565b826005036108e2575066071afd498d00005b801561091757604051339082156108fc029083906000818181858888f19350505050158015610915573d6000803e3d6000fd5b505b7f2840e58abaa0616fe10d16c927ad641eaec0232097e676cae73f07f85c5c3e533334878760405161094c9493929190610c66565b60405180910390a150505050505050565b60026001540361098057604051633ee5aeb560e01b815260040160405180910390fd5b6002600155565b6000546001600160a01b031633146106d65760405163118cdaa760e01b8152336004820152602401610436565b600080546001600160a01b038381166001600160a01b0319831681178455604051919092169283917f8be0079c531659141344cd1fd0a4f28419497f9722a3daafe3b4186f6b6457e09190a35050565b828054828255906000526020600020908101928215610a3f579160200282015b82811115610a3f578251825591602001919060010190610a24565b50610a4b929150610a6d565b5090565b6040518060a001604052806005906020820280368337509192915050565b5b80821115610a4b5760008155600101610a6e565b634e487b7160e01b600052604160045260246000fd5b60008060408385031215610aab57600080fd5b8235915060208084013567ffffffffffffffff80821115610acb57600080fd5b818601915086601f830112610adf57600080fd5b813581811115610af157610af1610a82565b8060051b604051601f19603f83011681018181108582111715610b1657610b16610a82565b604052918252848201925083810185019189831115610b3457600080fd5b938501935b82851015610b5257843584529385019392850192610b39565b8096505050505050509250929050565b600060208284031215610b7457600080fd5b5035919050565b600060208284031215610b8d57600080fd5b81356001600160a01b0381168114610ba457600080fd5b9392505050565b600060208284031215610bbd57600080fd5b5051919050565b600060208284031215610bd657600080fd5b81518015158114610ba457600080fd5b634e487b7160e01b600052603260045260246000fd5b600082610c1957634e487b7160e01b600052601260045260246000fd5b500690565b634e487b7160e01b600052601160045260246000fd5b81810381811115610c4757610c47610c1e565b92915050565b600060018201610c5f57610c5f610c1e565b5060010190565b6001600160a01b03851681526020808201859052610100820190604083018560005b6005811015610ca557815183529183019190830190600101610c88565b5050505082151560e08301529594505050505056fea26469706673582212209448f4df9dddf58cbdb2126a8ccd196d5bd192950653cfbe94b945dd5fd4088b64736f6c63430008170033","linkReferences":{}},"methodIdentifiers":{"COPE_TOKEN_REWARD_PER_SPIN()":"befe37fd","HACKATHON_BET_AMOUNT()":"a23a338b","PAYOUT_WIN_FOR_3_SYMBOLS()":"82773d17","PAYOUT_WIN_FOR_4_SYMBOLS()":"545d63d2","PAYOUT_WIN_FOR_5_SYMBOLS()":"eebd7782","callbackGasLimit()":"24f74697","copeToken()":"fc19071e","depositEther()":"98ea5fca","keyHash()":"61728f39","numWords()":"7ccfd7fc","owner()":"8da5cb5b","playSlots()":"5a34a638","rawFulfillRandomWords(uint256,uint256[])":"1fe543e3","renounceOwnership()":"715018a6","requestConfirmations()":"b0fb162f","s_randomWords(uint256)":"f6eaffc8","s_requestId()":"e89e106a","s_subscriptionId()":"8ac00021","transferOwnership(address)":"f2fde38b","withdrawCopeToken(uint256)":"68afba3a","withdrawEther()":"7362377b"},"id":27}