{"abi":[{"type":"constructor","inputs":[{"name":"_owner","type":"address","internalType":"address"},{"name":"_copeToken","type":"address","internalType":"address"}],"stateMutability":"nonpayable"},{"type":"receive","stateMutability":"payable"},{"type":"function","name":"COPE_TOKEN_REWARD_PER_SPIN","inputs":[],"outputs":[{"name":"","type":"uint256","internalType":"uint256"}],"stateMutability":"view"},{"type":"function","name":"HACKATHON_BET_AMOUNT","inputs":[],"outputs":[{"name":"","type":"uint256","internalType":"uint256"}],"stateMutability":"view"},{"type":"function","name":"PAYOUT_WIN_FOR_3_SYMBOLS","inputs":[],"outputs":[{"name":"","type":"uint256","internalType":"uint256"}],"stateMutability":"view"},{"type":"function","name":"PAYOUT_WIN_FOR_4_SYMBOLS","inputs":[],"outputs":[{"name":"","type":"uint256","internalType":"uint256"}],"stateMutability":"view"},{"type":"function","name":"PAYOUT_WIN_FOR_5_SYMBOLS","inputs":[],"outputs":[{"name":"","type":"uint256","internalType":"uint256"}],"stateMutability":"view"},{"type":"function","name":"copeToken","inputs":[],"outputs":[{"name":"","type":"address","internalType":"contract ICopeToken"}],"stateMutability":"view"},{"type":"function","name":"depositEther","inputs":[],"outputs":[],"stateMutability":"payable"},{"type":"function","name":"owner","inputs":[],"outputs":[{"name":"","type":"address","internalType":"address"}],"stateMutability":"view"},{"type":"function","name":"playSlots","inputs":[],"outputs":[],"stateMutability":"payable"},{"type":"function","name":"renounceOwnership","inputs":[],"outputs":[],"stateMutability":"nonpayable"},{"type":"function","name":"transferOwnership","inputs":[{"name":"newOwner","type":"address","internalType":"address"}],"outputs":[],"stateMutability":"nonpayable"},{"type":"function","name":"withdrawCopeToken","inputs":[{"name":"_amount","type":"uint256","internalType":"uint256"}],"outputs":[],"stateMutability":"nonpayable"},{"type":"function","name":"withdrawEther","inputs":[],"outputs":[],"stateMutability":"nonpayable"},{"type":"event","name":"GamePlayed","inputs":[{"name":"player","type":"address","indexed":false,"internalType":"address"},{"name":"amount","type":"uint256","indexed":false,"internalType":"uint256"},{"name":"slotsResults","type":"uint256[5]","indexed":false,"internalType":"uint256[5]"},{"name":"isWinner","type":"bool","indexed":false,"internalType":"bool"}],"anonymous":false},{"type":"event","name":"OwnershipTransferred","inputs":[{"name":"previousOwner","type":"address","indexed":true,"internalType":"address"},{"name":"newOwner","type":"address","indexed":true,"internalType":"address"}],"anonymous":false},{"type":"error","name":"InsufficientBalance","inputs":[]},{"type":"error","name":"InsufficientBalanceToPayWinner","inputs":[]},{"type":"error","name":"InsufficientBetAmount","inputs":[]},{"type":"error","name":"InsufficientCopeTokenBalance","inputs":[]},{"type":"error","name":"OwnableInvalidOwner","inputs":[{"name":"owner","type":"address","internalType":"address"}]},{"type":"error","name":"OwnableUnauthorizedAccount","inputs":[{"name":"account","type":"address","internalType":"address"}]},{"type":"error","name":"ReentrancyGuardReentrantCall","inputs":[]}],"bytecode":{"object":"0x608060405234801561001057600080fd5b5060405161099738038061099783398101604081905261002f916100fe565b816001600160a01b03811661005e57604051631e4fbdf760e01b81526000600482015260240160405180910390fd5b61006781610092565b5060018055600280546001600160a01b0319166001600160a01b039290921691909117905550610131565b600080546001600160a01b038381166001600160a01b0319831681178455604051919092169283917f8be0079c531659141344cd1fd0a4f28419497f9722a3daafe3b4186f6b6457e09190a35050565b80516001600160a01b03811681146100f957600080fd5b919050565b6000806040838503121561011157600080fd5b61011a836100e2565b9150610128602084016100e2565b90509250929050565b610857806101406000396000f3fe6080604052600436106100c65760003560e01c80638da5cb5b1161007f578063befe37fd11610059578063befe37fd146101a8578063eebd7782146101c4578063f2fde38b146101df578063fc19071e146101ff57600080fd5b80638da5cb5b1461016e57806398ea5fca146101a0578063a23a338b1461015457600080fd5b8063545d63d2146100d25780635a34a6381461010057806368afba3a1461010a578063715018a61461012a5780637362377b1461013f57806382773d171461015457600080fd5b366100cd57005b600080fd5b3480156100de57600080fd5b506100ed66038d7ea4c6800081565b6040519081526020015b60405180910390f35b61010861021f565b005b34801561011657600080fd5b506101086101253660046106e2565b6104a7565b34801561013657600080fd5b50610108610547565b34801561014b57600080fd5b50610108610559565b34801561016057600080fd5b506100ed655af3107a400081565b34801561017a57600080fd5b506000546001600160a01b03165b6040516001600160a01b0390911681526020016100f7565b6101086105b9565b3480156101b457600080fd5b506100ed670de0b6b3a764000081565b3480156101d057600080fd5b506100ed66071afd498d000081565b3480156101eb57600080fd5b506101086101fa3660046106fb565b6105da565b34801561020b57600080fd5b50600254610188906001600160a01b031681565b61022761061d565b655af3107a400034101561024e576040516301bc1d6960e21b815260040160405180910390fd5b66071afd498d00004710156102765760405163fb97c54760e01b815260040160405180910390fd5b61027e6106c4565b6000806001815b600581101561036d57604080514260208201526bffffffffffffffffffffffff193360601b1691810191909152605481018290526006906074016040516020818303038152906040528051906020012060001c6102e2919061072b565b8582600581106102f4576102f461074d565b6020020152801580159061033d57508461030f600183610779565b6005811061031f5761031f61074d565b60200201518582600581106103365761033661074d565b6020020151145b15610360578161034c81610792565b9250508282111561035b578192505b610365565b600191505b600101610285565b5060038210159250600083156103ef57826003036103925750655af3107a40006103ba565b826004036103a8575066038d7ea4c680006103ba565b826005036103ba575066071afd498d00005b80156103ef57604051339082156108fc029083906000818181858888f193505050501580156103ed573d6000803e3d6000fd5b505b6002546040516340c10f1960e01b8152336004820152670de0b6b3a764000060248201526001600160a01b03909116906340c10f1990604401600060405180830381600087803b15801561044257600080fd5b505af1158015610456573d6000803e3d6000fd5b505050507f2840e58abaa0616fe10d16c927ad641eaec0232097e676cae73f07f85c5c3e533334878760405161048f94939291906107ab565b60405180910390a150505050506104a560018055565b565b6104af610647565b6002546001600160a01b031663a9059cbb6104d26000546001600160a01b031690565b6040516001600160e01b031960e084901b1681526001600160a01b039091166004820152602481018490526044016020604051808303816000875af115801561051f573d6000803e3d6000fd5b505050506040513d601f19601f8201168201806040525081019061054391906107ff565b5050565b61054f610647565b6104a56000610674565b610561610647565b478061058057604051631e9acf1760e31b815260040160405180910390fd5b600080546040516001600160a01b039091169183156108fc02918491818181858888f19350505050158015610543573d6000803e3d6000fd5b600034116104a557604051631e9acf1760e31b815260040160405180910390fd5b6105e2610647565b6001600160a01b03811661061157604051631e4fbdf760e01b8152600060048201526024015b60405180910390fd5b61061a81610674565b50565b60026001540361064057604051633ee5aeb560e01b815260040160405180910390fd5b6002600155565b6000546001600160a01b031633146104a55760405163118cdaa760e01b8152336004820152602401610608565b600080546001600160a01b038381166001600160a01b0319831681178455604051919092169283917f8be0079c531659141344cd1fd0a4f28419497f9722a3daafe3b4186f6b6457e09190a35050565b6040518060a001604052806005906020820280368337509192915050565b6000602082840312156106f457600080fd5b5035919050565b60006020828403121561070d57600080fd5b81356001600160a01b038116811461072457600080fd5b9392505050565b60008261074857634e487b7160e01b600052601260045260246000fd5b500690565b634e487b7160e01b600052603260045260246000fd5b634e487b7160e01b600052601160045260246000fd5b8181038181111561078c5761078c610763565b92915050565b6000600182016107a4576107a4610763565b5060010190565b6001600160a01b03851681526020808201859052610100820190604083018560005b60058110156107ea578151835291830191908301906001016107cd565b5050505082151560e083015295945050505050565b60006020828403121561081157600080fd5b8151801515811461072457600080fdfea264697066735822122036fe4903646b4d87ca43b94b1f4500616dcf23ce7ef8774738a3bf2ed9c08e0464736f6c63430008170033","linkReferences":{}},"methodIdentifiers":{"COPE_TOKEN_REWARD_PER_SPIN()":"befe37fd","HACKATHON_BET_AMOUNT()":"a23a338b","PAYOUT_WIN_FOR_3_SYMBOLS()":"82773d17","PAYOUT_WIN_FOR_4_SYMBOLS()":"545d63d2","PAYOUT_WIN_FOR_5_SYMBOLS()":"eebd7782","copeToken()":"fc19071e","depositEther()":"98ea5fca","owner()":"8da5cb5b","playSlots()":"5a34a638","renounceOwnership()":"715018a6","transferOwnership(address)":"f2fde38b","withdrawCopeToken(uint256)":"68afba3a","withdrawEther()":"7362377b"},"id":25}