{"abi":[{"type":"constructor","inputs":[{"name":"_owner","type":"address","internalType":"address"},{"name":"_copeToken","type":"address","internalType":"address"}],"stateMutability":"nonpayable"},{"type":"function","name":"copeToken","inputs":[],"outputs":[{"name":"","type":"address","internalType":"contract IERC20"}],"stateMutability":"view"},{"type":"function","name":"createProposal","inputs":[{"name":"_title","type":"string","internalType":"string"},{"name":"_description","type":"string","internalType":"string"},{"name":"_endBlock","type":"uint256","internalType":"uint256"}],"outputs":[],"stateMutability":"nonpayable"},{"type":"function","name":"finalizeProposal","inputs":[{"name":"_id","type":"uint256","internalType":"uint256"}],"outputs":[],"stateMutability":"nonpayable"},{"type":"function","name":"getProposal","inputs":[{"name":"_id","type":"uint256","internalType":"uint256"}],"outputs":[{"name":"","type":"tuple","internalType":"struct ViceCasinoDAO.ReturnProposal","components":[{"name":"id","type":"uint256","internalType":"uint256"},{"name":"proposer","type":"address","internalType":"address"},{"name":"title","type":"string","internalType":"string"},{"name":"description","type":"string","internalType":"string"},{"name":"votesFor","type":"uint256","internalType":"uint256"},{"name":"votesAgainst","type":"uint256","internalType":"uint256"},{"name":"startBlock","type":"uint256","internalType":"uint256"},{"name":"endBlock","type":"uint256","internalType":"uint256"},{"name":"state","type":"uint8","internalType":"enum ViceCasinoDAO.ProposalState"}]}],"stateMutability":"view"},{"type":"function","name":"getProposalCount","inputs":[],"outputs":[{"name":"","type":"uint256","internalType":"uint256"}],"stateMutability":"view"},{"type":"function","name":"hasVotedOnProposal","inputs":[{"name":"_id","type":"uint256","internalType":"uint256"},{"name":"_voter","type":"address","internalType":"address"}],"outputs":[{"name":"","type":"bool","internalType":"bool"}],"stateMutability":"view"},{"type":"function","name":"minimumVotesForQuorum","inputs":[],"outputs":[{"name":"","type":"uint256","internalType":"uint256"}],"stateMutability":"view"},{"type":"function","name":"owner","inputs":[],"outputs":[{"name":"","type":"address","internalType":"address"}],"stateMutability":"view"},{"type":"function","name":"proposalCount","inputs":[],"outputs":[{"name":"","type":"uint256","internalType":"uint256"}],"stateMutability":"view"},{"type":"function","name":"proposals","inputs":[{"name":"","type":"uint256","internalType":"uint256"}],"outputs":[{"name":"id","type":"uint256","internalType":"uint256"},{"name":"proposer","type":"address","internalType":"address"},{"name":"title","type":"string","internalType":"string"},{"name":"description","type":"string","internalType":"string"},{"name":"votesFor","type":"uint256","internalType":"uint256"},{"name":"votesAgainst","type":"uint256","internalType":"uint256"},{"name":"startBlock","type":"uint256","internalType":"uint256"},{"name":"endBlock","type":"uint256","internalType":"uint256"},{"name":"state","type":"uint8","internalType":"enum ViceCasinoDAO.ProposalState"}],"stateMutability":"view"},{"type":"function","name":"renounceOwnership","inputs":[],"outputs":[],"stateMutability":"nonpayable"},{"type":"function","name":"transferOwnership","inputs":[{"name":"newOwner","type":"address","internalType":"address"}],"outputs":[],"stateMutability":"nonpayable"},{"type":"function","name":"voteOnProposal","inputs":[{"name":"_id","type":"uint256","internalType":"uint256"},{"name":"_vote","type":"uint8","internalType":"enum ViceCasinoDAO.Vote"}],"outputs":[],"stateMutability":"nonpayable"},{"type":"event","name":"OwnershipTransferred","inputs":[{"name":"previousOwner","type":"address","indexed":true,"internalType":"address"},{"name":"newOwner","type":"address","indexed":true,"internalType":"address"}],"anonymous":false},{"type":"event","name":"ProposalCreated","inputs":[{"name":"id","type":"uint256","indexed":true,"internalType":"uint256"},{"name":"proposer","type":"address","indexed":true,"internalType":"address"}],"anonymous":false},{"type":"event","name":"ProposalStateUpdated","inputs":[{"name":"id","type":"uint256","indexed":true,"internalType":"uint256"},{"name":"newState","type":"uint8","indexed":false,"internalType":"enum ViceCasinoDAO.ProposalState"}],"anonymous":false},{"type":"event","name":"Voted","inputs":[{"name":"id","type":"uint256","indexed":true,"internalType":"uint256"},{"name":"voter","type":"address","indexed":true,"internalType":"address"},{"name":"vote","type":"uint8","indexed":false,"internalType":"enum ViceCasinoDAO.Vote"},{"name":"votesFor","type":"uint256","indexed":false,"internalType":"uint256"},{"name":"votesAgainst","type":"uint256","indexed":false,"internalType":"uint256"}],"anonymous":false},{"type":"error","name":"AlreadyVoted","inputs":[{"name":"_voter","type":"address","internalType":"address"},{"name":"_id","type":"uint256","internalType":"uint256"}]},{"type":"error","name":"InvalidEndBlockForVoting","inputs":[{"name":"_id","type":"uint256","internalType":"uint256"},{"name":"endBlock","type":"uint256","internalType":"uint256"}]},{"type":"error","name":"InvalidProposalState","inputs":[{"name":"_id","type":"uint256","internalType":"uint256"},{"name":"state","type":"uint8","internalType":"enum ViceCasinoDAO.ProposalState"}]},{"type":"error","name":"NotCopeHolder","inputs":[{"name":"_msgSender","type":"address","internalType":"address"}]},{"type":"error","name":"OwnableInvalidOwner","inputs":[{"name":"owner","type":"address","internalType":"address"}]},{"type":"error","name":"OwnableUnauthorizedAccount","inputs":[{"name":"account","type":"address","internalType":"address"}]},{"type":"error","name":"VotingPeriodOver","inputs":[{"name":"_id","type":"uint256","internalType":"uint256"}]}],"bytecode":{"object":"0x608060405234801561001057600080fd5b50604051620012b3380380620012b3833981016040819052610031916100fc565b816001600160a01b03811661006057604051631e4fbdf760e01b81526000600482015260240160405180910390fd5b61006981610090565b50600180546001600160a01b0319166001600160a01b03929092169190911790555061012f565b600080546001600160a01b038381166001600160a01b0319831681178455604051919092169283917f8be0079c531659141344cd1fd0a4f28419497f9722a3daafe3b4186f6b6457e09190a35050565b80516001600160a01b03811681146100f757600080fd5b919050565b6000806040838503121561010f57600080fd5b610118836100e0565b9150610126602084016100e0565b90509250929050565b611174806200013f6000396000f3fe608060405234801561001057600080fd5b50600436106100cf5760003560e01c80638da5cb5b1161008c578063da35c66411610066578063da35c664146101bc578063efafb22e146101c5578063f2fde38b146101d8578063fc19071e146101eb57600080fd5b80638da5cb5b1461016f578063c08cc02d14610194578063c7f758a81461019c57600080fd5b8063013cf08b146100d45780630ce0ebf4146101055780632aa3285a1461011a5780635652077c14610131578063600303d814610144578063715018a614610167575b600080fd5b6100e76100e2366004610c09565b6101fe565b6040516100fc99989796959493929190610c92565b60405180910390f35b610118610113366004610dab565b610363565b005b61012360035481565b6040519081526020016100fc565b61011861013f366004610c09565b6104e9565b610157610152366004610e34565b6104f5565b60405190151581526020016100fc565b610118610524565b6000546001600160a01b03165b6040516001600160a01b0390911681526020016100fc565b600254610123565b6101af6101aa366004610c09565b610538565b6040516100fc9190610e60565b61012360025481565b6101186101d3366004610f0c565b6106eb565b6101186101e6366004610f40565b6109d6565b60015461017c906001600160a01b031681565b60046020526000908152604090208054600182015460028301805492936001600160a01b039092169261023090610f62565b80601f016020809104026020016040519081016040528092919081815260200182805461025c90610f62565b80156102a95780601f1061027e576101008083540402835291602001916102a9565b820191906000526020600020905b81548152906001019060200180831161028c57829003601f168201915b5050505050908060030180546102be90610f62565b80601f01602080910402602001604051908101604052809291908181526020018280546102ea90610f62565b80156103375780601f1061030c57610100808354040283529160200191610337565b820191906000526020600020905b81548152906001019060200180831161031a57829003601f168201915b505050600484015460058501546006860154600787015460089097015495969295919450925060ff1689565b6001546040516370a0823160e01b81523360048201526001600160a01b03909116906370a0823190602401602060405180830381865afa1580156103ab573d6000803e3d6000fd5b505050506040513d601f19601f820116820180604052508101906103cf9190610f9c565b6000036103f6576040516351eb882f60e11b81523360048201526024015b60405180910390fd5b8061040343611680610fcb565b1061042f5760025460405163f1c363a760e01b81526004810191909152602481018290526044016103ed565b6002805490600061043f83610fde565b90915550506002805460008181526004602052604090209081556001810180546001600160a01b0319163317905590810161047a8582611048565b50600381016104898482611048565b504360068201556007810182905560088101805460ff1916600190811790915581015481546040516001600160a01b03909216917fcd423cc1203c0af96b9b3d68d73b3064a69de2d14450bb7181c5e5df2132b35890600090a350505050565b6104f281610a11565b50565b60008281526004602090815260408083206001600160a01b038516845260090190915290205415155b92915050565b61052c610b27565b6105366000610b54565b565b610540610ba4565b6000828152600460209081526040918290208251610120810184528154815260018201546001600160a01b031692810192909252600281018054919383019161058890610f62565b80601f01602080910402602001604051908101604052809291908181526020018280546105b490610f62565b80156106015780601f106105d657610100808354040283529160200191610601565b820191906000526020600020905b8154815290600101906020018083116105e457829003601f168201915b5050505050815260200182600301805461061a90610f62565b80601f016020809104026020016040519081016040528092919081815260200182805461064690610f62565b80156106935780601f1061066857610100808354040283529160200191610693565b820191906000526020600020905b81548152906001019060200180831161067657829003601f168201915b505050918352505060048301546020820152600583015460408201526006830154606082015260078301546080820152600883015460a09091019060ff1660038111156106e2576106e2610c68565b90529392505050565b6001546040516370a0823160e01b81523360048201526001600160a01b03909116906370a0823190602401602060405180830381865afa158015610733573d6000803e3d6000fd5b505050506040513d601f19601f820116820180604052508101906107579190610f9c565b600003610779576040516351eb882f60e11b81523360048201526024016103ed565b60008281526004602052604090206001600882015460ff1660038111156107a2576107a2610c68565b146107e85760405162461bcd60e51b815260206004820152601660248201527550726f706f73616c206973206e6f742061637469766560501b60448201526064016103ed565b806007015443111561083c5760405162461bcd60e51b815260206004820152601760248201527f566f74696e6720706572696f642068617320656e64656400000000000000000060448201526064016103ed565b3360009081526009820160205260409020541561088b5760405162461bcd60e51b815260206004820152600d60248201526c105b1c9958591e481d9bdd1959609a1b60448201526064016103ed565b6001546040516370a0823160e01b81523360048201526000916001600160a01b0316906370a0823190602401602060405180830381865afa1580156108d4573d6000803e3d6000fd5b505050506040513d601f19601f820116820180604052508101906108f89190610f9c565b33600090815260098401602052604090208190559050600183600281111561092257610922610c68565b03610946578082600401600082825461093b9190610fcb565b909155506109799050565b600083600281111561095a5761095a610c68565b0361097957808260050160008282546109739190610fcb565b90915550505b336001600160a01b0316847fb6910efd8d1d738bf56054c5d79351ae490f94b373c9ff1dbe942f193ad7164a85856004015486600501546040516109bf93929190611108565b60405180910390a36109d084610a11565b50505050565b6109de610b27565b6001600160a01b038116610a0857604051631e4fbdf760e01b8152600060048201526024016103ed565b6104f281610b54565b60008181526004602052604090206001600882015460ff166003811115610a3a57610a3a610c68565b14610a805760405162461bcd60e51b815260206004820152601660248201527550726f706f73616c206973206e6f742061637469766560501b60448201526064016103ed565b8060070154431115610b235760035481600501548260040154610aa39190610fcb565b10158015610ab8575080600501548160040154115b15610ad15760088101805460ff19166003179055610ae1565b60088101805460ff191660021790555b600881015460405183917f2e9c51ed83140afdc7c794152653b552362a4659b9446b8f37ef8383ca51da0f91610b1a9160ff1690611130565b60405180910390a25b5050565b6000546001600160a01b031633146105365760405163118cdaa760e01b81523360048201526024016103ed565b600080546001600160a01b038381166001600160a01b0319831681178455604051919092169283917f8be0079c531659141344cd1fd0a4f28419497f9722a3daafe3b4186f6b6457e09190a35050565b6040518061012001604052806000815260200160006001600160a01b0316815260200160608152602001606081526020016000815260200160008152602001600081526020016000815260200160006003811115610c0457610c04610c68565b905290565b600060208284031215610c1b57600080fd5b5035919050565b6000815180845260005b81811015610c4857602081850181015186830182015201610c2c565b506000602082860101526020601f19601f83011685010191505092915050565b634e487b7160e01b600052602160045260246000fd5b60048110610c8e57610c8e610c68565b9052565b8981526001600160a01b038916602082015261012060408201819052600090610cbd8382018b610c22565b90508281036060840152610cd1818a610c22565b9150508660808301528560a08301528460c08301528360e0830152610cfa610100830184610c7e565b9a9950505050505050505050565b634e487b7160e01b600052604160045260246000fd5b600082601f830112610d2f57600080fd5b813567ffffffffffffffff80821115610d4a57610d4a610d08565b604051601f8301601f19908116603f01168101908282118183101715610d7257610d72610d08565b81604052838152866020858801011115610d8b57600080fd5b836020870160208301376000602085830101528094505050505092915050565b600080600060608486031215610dc057600080fd5b833567ffffffffffffffff80821115610dd857600080fd5b610de487838801610d1e565b94506020860135915080821115610dfa57600080fd5b50610e0786828701610d1e565b925050604084013590509250925092565b80356001600160a01b0381168114610e2f57600080fd5b919050565b60008060408385031215610e4757600080fd5b82359150610e5760208401610e18565b90509250929050565b602081528151602082015260006020830151610e8760408401826001600160a01b03169052565b506040830151610120806060850152610ea4610140850183610c22565b91506060850151601f19858403016080860152610ec18382610c22565b925050608085015160a085015260a085015160c085015260c085015160e085015260e0850151610100818187015280870151915050610f0282860182610c7e565b5090949350505050565b60008060408385031215610f1f57600080fd5b82359150602083013560038110610f3557600080fd5b809150509250929050565b600060208284031215610f5257600080fd5b610f5b82610e18565b9392505050565b600181811c90821680610f7657607f821691505b602082108103610f9657634e487b7160e01b600052602260045260246000fd5b50919050565b600060208284031215610fae57600080fd5b5051919050565b634e487b7160e01b600052601160045260246000fd5b8082018082111561051e5761051e610fb5565b600060018201610ff057610ff0610fb5565b5060010190565b601f821115611043576000816000526020600020601f850160051c810160208610156110205750805b601f850160051c820191505b8181101561103f5782815560010161102c565b5050505b505050565b815167ffffffffffffffff81111561106257611062610d08565b611076816110708454610f62565b84610ff7565b602080601f8311600181146110ab57600084156110935750858301515b600019600386901b1c1916600185901b17855561103f565b600085815260208120601f198616915b828110156110da578886015182559484019460019091019084016110bb565b50858210156110f85787850151600019600388901b60f8161c191681555b5050505050600190811b01905550565b606081016003851061111c5761111c610c68565b938152602081019290925260409091015290565b6020810161051e8284610c7e56fea26469706673582212204aab68b9ba87db15de3d9ff64ea8c39254671182d27f442ce6786a0932f620db64736f6c63430008170033","linkReferences":{}},"methodIdentifiers":{"copeToken()":"fc19071e","createProposal(string,string,uint256)":"0ce0ebf4","finalizeProposal(uint256)":"5652077c","getProposal(uint256)":"c7f758a8","getProposalCount()":"c08cc02d","hasVotedOnProposal(uint256,address)":"600303d8","minimumVotesForQuorum()":"2aa3285a","owner()":"8da5cb5b","proposalCount()":"da35c664","proposals(uint256)":"013cf08b","renounceOwnership()":"715018a6","transferOwnership(address)":"f2fde38b","voteOnProposal(uint256,uint8)":"efafb22e"},"id":28}